:100000000A128A11692C00308A000408840A8207C7
:100010000034503472346F34633465347334733461
:1000200069346E3467342E342E342E342E342E340C
:100030002E3400346F346E342034743468346534B4
:1000400020347234653461346434653472342E344F
:100050000034753473346534723420346E346F3444
:100060007434203466346F3475346E346434003440
:1000700050346C34613463346534203479346F34F3
:1000800075347234203449344434003420342034FC
:1000900020345234463449344434203464346F3488
:1000A0006F347234003420347334653463347534FF
:1000B000723469347434793400347534733465348B
:1000C00072343A3420340034493444343A342034DD
:0200D0000034FA
:1007DC00EF2B831203138C1EF42BF52BEF2BF62B24
:1007EC001A08F0007008F1007108FC2B08007E0854
:1007FC008A007F0882000A128A11FD230A128A11CC
:10080C008000840A04087D0603190034FF0A0319CA
:10081C00FE0A012C01300A128A11A9240A128A112B
:10082C000030F3000030F2000230F1005830F000DC
:10083C000A128A111C250A128A1108004A346F34D4
:10084C0073346534703468342034203420342034CC
:10085C004D346134723479342034203420342034D3
:10086C002034203430343034313432343934383468
:10087C003934323437343034303430343134323437
:10088C00373438343434373432343134FA001030AD
:10089C007A020318522C532C5B2C7A08803E0A12D5
:1008AC008A11A9240A128A11682C7A08EC3EF900E4
:1008BC007908FA007A08C03E0A128A11A9240A1291
:1008CC008A11682C08008313B430FD000430FE003C
:1008DC002430FF00A03084000A128A1101240A126D
:1008EC008A116D30FD000430FE003830FF005930A5
:1008FC0084000A128A1101240A128A1183010A1235
:10090C008A114C2D8312031307140030F3000030AE
:10091C00F2002730F1001030F0000A128A111C2569
:10092C000A128A118312031307100030F3000030EF
:10093C00F2002730F1001030F0000A128A111C2549
:10094C000A128A110800F800831203130711871189
:10095C007808860007160030F3000030F2000030F3
:10096C00F1003230F0000A128A111C250A128A1189
:10097C008312031307120030F3000030F200003032
:10098C00F1003230F0000A128A111C250A128A1169
:10099C000800F800831203130711871578088600E6
:1009AC0007160030F3000030F2000030F1000A307E
:1009BC00F0000A128A111C250A128A1183120313E1
:1009CC0007120030F3000030F2000030F1000A3062
:1009DC00F0000A128A111C250A128A110800FB0069
:1009EC00FA01092D7B0884000A128A1103200A12CD
:1009FC008A110A128A11CF240A128A110130F900C5
:100A0C007908FB07092D7B08031D0D2D1B2D7B0879
:100A1C0084000A128A1103200A128A110038031D5D
:100A2C00182D192DF82C1B2D1B2D08007308720482
:100A3C0071047004031D232D242D262D4B2D4B2DBD
:100A4C000130F4000030F5000030F6000030F70003
:100A5C007408F0027508031C750F352D362DF10244
:100A6C007608031C760F3B2D3C2DF2027708031CF5
:100A7C00770F412D422DF302730872047104700438
:100A8C00031D492D4A2D262D4B2D0800383084008E
:100A9C00593083120313A0000408A1000A30A200ED
:100AAC002008840083130008A300A00A21088400F6
:100ABC0023088000A10AA20B562D4230840063301B
:100ACC00A0000408A1000A30A200200884008313AF
:100ADC000008A300A00A2108840023088000A10AB2
:100AEC00A20B6B2D24308400A030A0000408A100C0
:100AFC000A30A2002008840083130008A300A00A77
:100B0C002108840023088000A10AA20B802D2E301E
:100B1C008400AA30A0000408A1000A30A20020081A
:100B2C00840083130008A300A00A21088400230872
:100B3C008000A10AA20B952D831603138601803029
:100B4C008700F330850081309900181598168312B0
:100B5C000313181698170630831603139F000130E1
:100B6C000A128A11A9240A128A1102300A128A1155
:100B7C00A9240A128A1106300A128A11A9240A120F
:100B8C008A110C300A128A11A9240A128A113830DF
:100B9C000A128A11A9240A128A118312031307104C
:100BAC008714051185110A128A1110240A128A1150
:100BBC0000300A128A114C240A128A113E300A1291
:100BCC008A11F5240A128A1114300A128A114C2443
:100BDC000A128A114B300A128A11F5240A128A1150
:100BEC000A128A1188240A128A110030F300033089
:100BFC00F2000D30F1004030F0000A128A111C2571
:100C0C000A128A11092E0A128A1110240A128A1148
:100C1C0000300A128A114C240A128A1130300A123E
:100C2C008A11F5240A128A1114300A128A114C24E2
:100C3C000A128A1112300A128A11F5240A128A1128
:100C4C0083120313D8010A305802031C2E2E2F2EA8
:100C5C00312E492E492E0A128A11EE230A128A11BC
:100C6C0083120313A00058084C3E84002008831301
:100C7C0080000130A0002008D8070A305802031C5D
:100C8C00482E492E312E05150A128A1110240A12EB
:100C9C008A1114300A128A114C240A128A1101305A
:100CAC000A128A11F5240A128A110030F30000305E
:100CBC00F2009C30F1004030F0000A128A111C2521
:100CCC000A128A1183120313D601D701D8010A30F4
:100CDC005802031C722E732E752E932E932E5808C9
:100CEC00383E840083130008A00058084C3E840052
:100CFC00000820060319832E842E882ED701031496
:100D0C00D70D882E0130A0002008D8070A305802D1
:100D1C00031C912E922E752E932ED708031D972E01
:100D2C00982E9C2ED6010314D60D9C2ED701D801DB
:100D3C000A305802031CA32EA42EA62EC42EC42E99
:100D4C005808423E840083130008A00058084C3E0B
:100D5C008400000820060319B42EB52EB92ED70135
:100D6C000314D70DB92E0130A0002008D8070A3083
:100D7C005802031CC22EC32EA62EC42ED708031D48
:100D8C00C82EC92ECE2E0230A0002008D600CE2EA2
:100D9C000A128A1110240A128A11E02F85150030CC
:100DAC000A128A114C240A128A115C300A128A1116
:100DBC00F5240A128A1183120313D8010A3058023F
:100DCC00031CE92EEA2EEC2E032F032F5808383E75
:100DDC008400831300080A128A11CF240A128A1184
:100DEC00013083120313A0002008D8070A305802E0
:100DFC00031C012F022FEC2E032F14300A128A1120
:100E0C004C240A128A1155300A128A11F5240A123E
:100E1C008A1183120313D8010A305802031C172FAE
:100E2C00182F1A2F312F312F5808243E840083138A
:100E3C0000080A128A11CF240A128A110130831277
:100E4C000313A0002008D8070A305802031C2F2FC8
:100E5C00302F1A2F312F0A128A1188240A128A1164
:100E6C00EA2F851500300A128A114C240A128A11B5
:100E7C005C300A128A11F5240A128A1183120313A8
:100E8C00D8010A305802031C4C2F4D2F4F2F662FC0
:100E9C00662F5808423E8400831300080A128A11F8
:100EAC00CF240A128A11013083120313A0002008E8
:100EBC00D8070A305802031C642F652F4F2F662F5A
:100ECC0014300A128A114C240A128A1155300A1253
:100EDC008A11F5240A128A1183120313D8010A30DD
:100EEC005802031C7A2F7B2F7D2F942F942F580898
:100EFC002E3E8400831300080A128A11CF240A1292
:100F0C008A11013083120313A0002008D8070A307D
:100F1C005802031C922F932F7D2F942F0A128A11A3
:100F2C0088240A128A11EA2F00300A128A114C24E2
:100F3C000A128A115C300A128A11F5240A128A11DB
:100F4C0083120313D8010A305802031CAE2FAF2FA3
:100F5C00B12FC82FC82F58084C3E840083130008AB
:100F6C000A128A11CF240A128A1101308312031338
:100F7C00A0002008D8070A305802031CC62FC72F20
:100F8C00B12FC82F14300A128A114C240A128A115C
:100F9C0021300A128A11F5240A128A110A128A11B6
:100FAC0088240A128A110A128A1188240A128A11B8
:100FBC00EA2FEA2F831203135608013A0319D42E91
:100FCC00033A0319372F9A2F0030F3000430F20044
:100FDC009330F100E030F0000A128A111C250A123D
:100FEC008A118312031305118511092E092E0A1279
:040FFC008A1100282E
:02400E00323F3F
:00000001FF
