:10000000203084005D300A200A128A115F2D040618
:100010008001840A0406031D07286400003483124B
:100020000313DD00DE1B1D285E1B25285E088A00E9
:100030005D08DD0A0319DE0A820083135E18831748
:100040005D08DD0A8400000808002034733465343C
:100050006334753472346934743479340034203440
:100060002034203452344634493444342034643407
:100070006F346F34723400347534733465347234D1
:1000800020346E346F347434203466346F347534F5
:100090006E346434003450346C3461346334653409
:1000A000203479346F347534723420344934443414
:1000B00000346F346E342034743468346534203442
:1000C0007234653461346434653472342E340034EF
:1000D000503472346F346334653473347334693438
:1000E0006E3467342E342E342E342E342E342E3487
:1000F000003475347334653472343A342034003447
:0A010000493444343A34203400340A
:1008C000612C831203138C1E662C672C612C8312FF
:1008D00003131A08D50055086D2C03138312080062
:1008E00001300A128A11A5240A128A115830D9003F
:1008F0000230DA000030DB000030DC000A128A111E
:1009000004250A128A1103138312080083120313A9
:100910000711871586000716D8000A30D900DA01BA
:10092000DB01DC010A128A1104250A128A1107125E
:100930000A30D900DA01DB01DC010A128A11042530
:100940000A128A110313831208008312031307117A
:10095000871186000716D6003230D900DA01DB0194
:10096000DC010A128A1104250A128A110712323098
:10097000D900DA01DB01DC010A128A1104250A120E
:100980008A1103138312080083120313D500103059
:1009900055020318CC2CCD2CD52C5508803E0A12BC
:1009A0008A11A5240A128A11E02CEC308312031359
:1009B000D5075508C03E0A128A11A5240A128A11C9
:1009C0000313831208008312031307141030D90095
:1009D0002730DA000030DB000030DC000A128A1118
:1009E00004250A128A1107101030D9002730DA00C6
:1009F0000030DB000030DC000A128A1104250A12E4
:100A00008A11031383120800831203135C085B042A
:100A10005A045904031D0D2D0E2D0F2D2D2DFF30C1
:100A200083120313D907FF3003110318013E031D7E
:100A3000DA07FF3003110318013E031DDB07FF3007
:100A400003110318013E031DDC075C085B045A0414
:100A50005904031D2C2D2D2D0F2D03138312080077
:100A600083120313D701462D831203135608DE00A9
:100A70005508D50A0319D60A0A128A110F200A123C
:100A80008A110A128A1186240A128A118312031308
:100A900056085504031D4D2D592D5608DE005508E6
:100AA0000A128A110F200A128A110038031D5A2DCA
:100AB000592D5C2D5B2D342D03138312080030302B
:100AC00083120313AD003030AE003130AF0032304E
:100AD000B0003930B1003830B2003930B3003230B4
:100AE000B4003730B5003030B6003030B7003030A9
:100AF000B8003130B9003230BA003730BB0038307E
:100B0000BC003430BD003730BE003230BF00313061
:100B1000C0004A30C1006F30C2007330C30065307E
:100B2000C4007030C5006830C6002030C7002030D7
:100B3000C8002030C9002030CA004D30CB006130E1
:100B4000CC007230CD007930CE002030CF00203084
:100B5000D0002030D1002030D2002030D30020300F
:100B6000D4008316860180308700F3308500813001
:100B700099001815981683121816981706308316C0
:100B80009F0001300A128A11A5240A128A1102302C
:100B90000A128A11A5240A128A1106300A128A1131
:100BA000A5240A128A110C300A128A11A5240A12ED
:100BB0008A1138300A128A11A5240A128A110710E4
:100BC0008714051185110A128A1170240A128A11DC
:100BD00000300A128A11C4240A128A112F30D5005B
:100BE0000030D6000A128A1130250A128A111430F8
:100BF0000A128A11C4240A128A112530D500003045
:100C0000D6000A128A1130250A128A110A128A1194
:100C1000E3240A128A114030D9000D30DA00033083
:100C2000DB000030DC000A128A1104250A128A1146
:100C30000A128A1170240A128A1100300A128A11CB
:100C4000C4240A128A114B30D5000030D6000A1293
:100C50008A1130250A128A1114300A128A11C4240A
:100C60000A128A115930D5000030D6000A128A11B2
:100C700030250A128A11A0010A302002031C412EDD
:100C8000422E432E562E0A128A1160240A128A110D
:100C9000F0002008233E8400831370088000A00A1F
:100CA0000A302002031C552E562E432E83120313A6
:100CB00005150A128A1170240A128A1114300A12B8
:100CC0008A11C4240A128A116830D5000030D60077
:100CD0000A128A1130250A128A114030D9009C303C
:100CE000DA000030DB000030DC000A128A11042533
:100CF0000A128A11A201A101A0010A302002031CDC
:100D0000822E832E842EA12E8312031320082D3EC3
:100D1000840083130008F0002008233E840083131E
:100D2000000870060319952E962E982EA101A10A8F
:100D300083120313A00A0A302002031CA02EA12E46
:100D4000842E83120313A108031DA72EA82EAA2EFA
:100D5000A201A20A83120313A101A0010A302002FA
:100D6000031CB32EB42EB52ED22E831203132008EB
:100D7000373E840083130008F0002008233E8400DF
:100D80008313000870060319C62EC72EC92EA101B1
:100D9000A10A83120313A00A0A302002031CD12ED9
:100DA000D22EB52E83120313A108031DD82ED92EDF
:100DB000DB2E0230A2000A128A1170240A128A1154
:100DC000E02F83120313851500300A128A11C42400
:100DD0000A128A118030D5000030D6000A128A111A
:100DE00030250A128A11A0010A302002031CF92EB4
:100DF000FA2EFB2E0E2F8312031320082D3E8400A3
:100E0000831300080A128A1186240A128A11A00A82
:100E10000A302002031C0D2F0E2FFB2E14300A1255
:100E20008A11C4240A128A117930D5000030D60004
:100E30000A128A1130250A128A11A0010A302002F2
:100E4000031C232F242F252F382F83120313200850
:100E5000413E8400831300080A128A1186240A1274
:100E60008A11A00A0A302002031C372F382F252FA1
:100E70000A128A11E3240A128A11EA2F8312031339
:100E8000851500300A128A11C4240A128A11803092
:100E9000D5000030D6000A128A1130250A128A11B4
:100EA000A0010A302002031C562F572F582F6B2FFA
:100EB000831203132008373E8400831300080A12AC
:100EC0008A1186240A128A11A00A0A302002031C01
:100ED0006A2F6B2F582F14300A128A11C4240A1259
:100EE0008A117930D5000030D6000A128A113025D7
:100EF0000A128A11A0010A302002031C802F812FC0
:100F0000822F952F8312031320084B3E84008313F6
:100F100000080A128A1186240A128A11A00A0A30CD
:100F20002002031C942F952F822F0A128A11E3248A
:100F30000A128A11EA2F00300A128A11C4240A12F6
:100F40008A118030D5000030D6000A128A1130256F
:100F50000A128A11A0010A302002031CB02FB12FFF
:100F6000B22FC52F831203132008233E840083135E
:100F700000080A128A1186240A128A11A00A0A306D
:100F80002002031CC42FC52FB22F14300A128A115D
:100F9000C4240A128A113C30D5000030D6000A124F
:100FA0008A1130250A128A110A128A11E3240A12C0
:100FB0008A110A128A11E3240A128A11EA2FEA2FEF
:100FC000831203132208013A0319E12E033A03198D
:100FD0003E2F9B2FE03083120313D9009330DA00A9
:100FE0000430DB000030DC000A128A1104250A12EA
:100FF0008A1105118511182E83010A128A11002801
:02400E00323F3F
:00000001FF
